{"abi":[{"type":"constructor","inputs":[{"name":"treasury","type":"address","internalType":"address"},{"name":"reserveFeePercent","type":"uint256","internalType":"uint256"}],"stateMutability":"nonpayable"},{"type":"function","name":"MAX_RESERVE_FEE_PERCENT","inputs":[],"outputs":[{"name":"","type":"uint256","internalType":"uint256"}],"stateMutability":"view"},{"type":"function","name":"MIN_TOTAL_CYCLES","inputs":[],"outputs":[{"name":"","type":"uint256","internalType":"uint256"}],"stateMutability":"view"},{"type":"function","name":"addSupportedSYTokens","inputs":[{"name":"syTokens","type":"address[]","internalType":"address[]"}],"outputs":[],"stateMutability":"nonpayable"},{"type":"function","name":"createSpiralPool","inputs":[{"name":"syToken","type":"address","internalType":"address"},{"name":"amountCycle","type":"uint256","internalType":"uint256"},{"name":"cycleDuration","type":"uint256","internalType":"uint256"},{"name":"cycleDepositAndBidDuration","type":"uint256","internalType":"uint256"},{"name":"totalCycles","type":"uint256","internalType":"uint256"},{"name":"startInterval","type":"uint256","internalType":"uint256"}],"outputs":[{"name":"pool","type":"address","internalType":"address"}],"stateMutability":"nonpayable"},{"type":"function","name":"getReserveFeePercent","inputs":[],"outputs":[{"name":"","type":"uint256","internalType":"uint256"}],"stateMutability":"view"},{"type":"function","name":"getSpiralPoolsForSYToken","inputs":[{"name":"syToken","type":"address","internalType":"address"}],"outputs":[{"name":"","type":"address[]","internalType":"address[]"}],"stateMutability":"view"},{"type":"function","name":"getSupportedSYTokens","inputs":[],"outputs":[{"name":"","type":"address[]","internalType":"address[]"}],"stateMutability":"view"},{"type":"function","name":"getTreasury","inputs":[],"outputs":[{"name":"treasury","type":"address","internalType":"address"}],"stateMutability":"view"},{"type":"function","name":"getUnderlyingTokens","inputs":[{"name":"syToken","type":"address","internalType":"address"}],"outputs":[{"name":"ybt","type":"address","internalType":"address"},{"name":"baseToken","type":"address","internalType":"address"}],"stateMutability":"view"},{"type":"function","name":"isSupportedSYToken","inputs":[{"name":"syToken","type":"address","internalType":"address"}],"outputs":[{"name":"","type":"bool","internalType":"bool"}],"stateMutability":"view"},{"type":"function","name":"owner","inputs":[],"outputs":[{"name":"","type":"address","internalType":"address"}],"stateMutability":"view"},{"type":"function","name":"renounceOwnership","inputs":[],"outputs":[],"stateMutability":"nonpayable"},{"type":"function","name":"transferOwnership","inputs":[{"name":"newOwner","type":"address","internalType":"address"}],"outputs":[],"stateMutability":"nonpayable"},{"type":"function","name":"updateReserveFeePercent","inputs":[{"name":"reserveFeePercent","type":"uint256","internalType":"uint256"}],"outputs":[],"stateMutability":"nonpayable"},{"type":"function","name":"updateTreasury","inputs":[{"name":"treasury","type":"address","internalType":"address"}],"outputs":[],"stateMutability":"nonpayable"},{"type":"event","name":"OwnershipTransferred","inputs":[{"name":"previousOwner","type":"address","indexed":true,"internalType":"address"},{"name":"newOwner","type":"address","indexed":true,"internalType":"address"}],"anonymous":false},{"type":"event","name":"PoolCreated","inputs":[{"name":"pool","type":"address","indexed":true,"internalType":"address"},{"name":"syToken","type":"address","indexed":true,"internalType":"address"}],"anonymous":false},{"type":"error","name":"OwnableInvalidOwner","inputs":[{"name":"owner","type":"address","internalType":"address"}]},{"type":"error","name":"OwnableUnauthorizedAccount","inputs":[{"name":"account","type":"address","internalType":"address"}]},{"type":"error","name":"SpiralPoolFactory__AmountCycleCannotBeZero","inputs":[]},{"type":"error","name":"SpiralPoolFactory__CycleDurationCannotBeZero","inputs":[]},{"type":"error","name":"SpiralPoolFactory__InvalidCycleDepositAndBidDuration","inputs":[]},{"type":"error","name":"SpiralPoolFactory__InvalidReserveFeePercent","inputs":[]},{"type":"error","name":"SpiralPoolFactory__StartIntervalCannotBeZero","inputs":[]},{"type":"error","name":"SpiralPoolFactory__TotalCyclesTooLow","inputs":[{"name":"minTotalCycles","type":"uint256","internalType":"uint256"},{"name":"inputTotalCycles","type":"uint256","internalType":"uint256"}]},{"type":"error","name":"SpiralPoolFactory__TreasuryCannotBeZeroAddress","inputs":[]},{"type":"error","name":"SpiralPoolFactory__UnsupportedSYToken","inputs":[]},{"type":"error","name":"SpiralPool__SYTokenAlreadyAdded","inputs":[]}],"bytecode":{"object":"0x608060405234801561000f575f5ffd5b5060405161420638038061420683398101604081905261002e9161017b565b338061005457604051631e4fbdf760e01b81525f60048201526024015b60405180910390fd5b61005d81610077565b50610067826100c6565b61007081610117565b50506101b2565b5f80546001600160a01b038381166001600160a01b0319831681178455604051919092169283917f8be0079c531659141344cd1fd0a4f28419497f9722a3daafe3b4186f6b6457e09190a35050565b6100ce61014d565b6001600160a01b0381166100f5576040516390d91c8f60e01b815260040160405180910390fd5b600180546001600160a01b0319166001600160a01b0392909216919091179055565b61011f61014d565b67016345785d8a00008111156101485760405163713205b360e01b815260040160405180910390fd5b600255565b5f546001600160a01b031633146101795760405163118cdaa760e01b815233600482015260240161004b565b565b5f5f6040838503121561018c575f5ffd5b82516001600160a01b03811681146101a2575f5ffd5b6020939093015192949293505050565b614047806101bf5f395ff3fe608060405234801561000f575f5ffd5b50600436106100f0575f3560e01c80638c7193b711610093578063abae098e11610063578063abae098e14610253578063f2fde38b14610266578063f704d19b14610279578063fe4d911d14610281575f5ffd5b80638c7193b7146102155780638da5cb5b146102285780639db0976414610238578063a60df5e81461024b575f5ffd5b806364752910116100ce5780636475291014610170578063656dc2e41461018d578063715018a6146101f85780637f51bb1f14610202575f5ffd5b80633b19e84a146100f45780634da16d2f1461011e578063561dba4f14610133575b5f5ffd5b6001546001600160a01b03165b6040516001600160a01b0390911681526020015b60405180910390f35b610126610294565b60405161011591906108f8565b610160610141366004610957565b6001600160a01b039081165f9081526004602052604090205416151590565b6040519015158152602001610115565b61017f67016345785d8a000081565b604051908152602001610115565b6101d861019b366004610957565b6001600160a01b039081165f9081526004602090815260409182902082518084019093528054841680845260019091015490931691018190529091565b604080516001600160a01b03938416815292909116602083015201610115565b6102006102f4565b005b610200610210366004610957565b610307565b610200610223366004610979565b610358565b5f546001600160a01b0316610101565b610101610246366004610990565b61038e565b60025461017f565b610126610261366004610957565b6104fc565b610200610274366004610957565b61056f565b61017f600281565b61020061028f3660046109d8565b6105b1565b606060038054806020026020016040519081016040528092919081815260200182805480156102ea57602002820191905f5260205f20905b81546001600160a01b031681526001909101906020018083116102cc575b5050505050905090565b6102fc610776565b6103055f6107a2565b565b61030f610776565b6001600160a01b038116610336576040516390d91c8f60e01b815260040160405180910390fd5b600180546001600160a01b0319166001600160a01b0392909216919091179055565b610360610776565b67016345785d8a00008111156103895760405163713205b360e01b815260040160405180910390fd5b600255565b5f61039d8787878787876107f1565b6001600160a01b038088165f908152600460209081526040808320815180830190925280548516825260010154909316908301526103db8442610a49565b90505f60015f9054906101000a90046001600160a01b03166002548b855f015186602001518d8d8d8d8a604051610411906108eb565b6001600160a01b039a8b16815260208101999099529689166040890152948816606088015296909216608086015260a085015260c084015260e083019390935261010082019290925261012081019190915261014001604051809103905ff080158015610480573d5f5f3e3d5ffd5b506001600160a01b038b81165f818152600560209081526040808320805460018101825590845291832090910180546001600160a01b03191694861694851790555193945084939192917f4f2ce4e40f623ca765fc0167a25cb7842ceaafb8d82d3dec26ca0d0e0d2d48969190a39a9950505050505050505050565b6001600160a01b0381165f9081526005602090815260409182902080548351818402810184019094528084526060939283018282801561056357602002820191905f5260205f20905b81546001600160a01b03168152600190910190602001808311610545575b50505050509050919050565b610577610776565b6001600160a01b0381166105a557604051631e4fbdf760e01b81525f60048201526024015b60405180910390fd5b6105ae816107a2565b50565b6105b9610776565b805f5b81811015610770575f8484838181106105d7576105d7610a6e565b90506020020160208101906105ec9190610957565b6001600160a01b038082165f90815260046020526040902080549293509116156106295760405163189e029d60e11b815260040160405180910390fd5b600380546001810182555f9182527fc2575a0e9e593c00f959f8c92f12db2869c3395a3b0502d05e2516446f71f85b0180546001600160a01b0319166001600160a01b038516908117909155604080516376d5de8560e01b815290516376d5de85916004808201926020929091908290030181865afa1580156106ae573d5f5f3e3d5ffd5b505050506040513d601f19601f820116820180604052508101906106d29190610a82565b90505f836001600160a01b031663a40bee506040518163ffffffff1660e01b8152600401606060405180830381865afa158015610711573d5f5f3e3d5ffd5b505050506040513d601f19601f820116820180604052508101906107359190610a9d565b5084546001600160a01b039485166001600160a01b0319918216178655600195860180549290951691161790925550509190910190506105bc565b50505050565b5f546001600160a01b031633146103055760405163118cdaa760e01b815233600482015260240161059c565b5f80546001600160a01b038381166001600160a01b0319831681178455604051919092169283917f8be0079c531659141344cd1fd0a4f28419497f9722a3daafe3b4186f6b6457e09190a35050565b6001600160a01b038681165f908152600460205260409020541661082857604051634874b30960e01b815260040160405180910390fd5b5f85116108485760405163479c4b9360e01b815260040160405180910390fd5b5f8411610868576040516368d3049f60e01b815260040160405180910390fd5b5f831180156108775750838311155b610894576040516382af88cd60e01b815260040160405180910390fd5b600282818110156108c157604051635680551360e01b81526004810192909252602482015260440161059c565b50505f81116108e3576040516301e59c4960e01b815260040160405180910390fd5b505050505050565b61352280610af083390190565b602080825282518282018190525f918401906040840190835b818110156109385783516001600160a01b0316835260209384019390920191600101610911565b509095945050505050565b6001600160a01b03811681146105ae575f5ffd5b5f60208284031215610967575f5ffd5b813561097281610943565b9392505050565b5f60208284031215610989575f5ffd5b5035919050565b5f5f5f5f5f5f60c087890312156109a5575f5ffd5b86356109b081610943565b9860208801359850604088013597606081013597506080810135965060a00135945092505050565b5f5f602083850312156109e9575f5ffd5b823567ffffffffffffffff8111156109ff575f5ffd5b8301601f81018513610a0f575f5ffd5b803567ffffffffffffffff811115610a25575f5ffd5b8560208260051b8401011115610a39575f5ffd5b6020919091019590945092505050565b80820180821115610a6857634e487b7160e01b5f52601160045260245ffd5b92915050565b634e487b7160e01b5f52603260045260245ffd5b5f60208284031215610a92575f5ffd5b815161097281610943565b5f5f5f60608486031215610aaf575f5ffd5b835160028110610abd575f5ffd5b6020850151909350610ace81610943565b604085015190925060ff81168114610ae4575f5ffd5b80915050925092509256fe610220604052348015610010575f5ffd5b5060405161352238038061352283398101604081905261002f9161013c565b6040518060400160405280601581526020017f53706972616c205374616b6520506f736974696f6e00000000000000000000008152506040518060400160405280600381526020016205353560ec1b815250838282815f90816100929190610278565b50600161009f8282610278565b50505060805250506001600160a01b03808b166101e0526101c08a90528781166102005286811660c052881660a05260e08590526100dd8286610346565b610100526101208490526101608290526101408390526101808190526101038285610346565b61010d9082610363565b6101a0525061037698505050505050505050565b80516001600160a01b0381168114610137575f5ffd5b919050565b5f5f5f5f5f5f5f5f5f5f6101408b8d031215610156575f5ffd5b61015f8b610121565b60208c0151909a50985061017560408c01610121565b975061018360608c01610121565b965061019160808c01610121565b95505f60a08c01519050809550505f60c08c01519050809450505f60e08c01519050809350505f6101008c01519050809250505f6101208c01519050809150509295989b9194979a5092959850565b634e487b7160e01b5f52604160045260245ffd5b600181811c9082168061020857607f821691505b60208210810361022657634e487b7160e01b5f52602260045260245ffd5b50919050565b601f82111561027357805f5260205f20601f840160051c810160208510156102515750805b601f840160051c820191505b81811015610270575f815560010161025d565b50505b505050565b81516001600160401b03811115610291576102916101e0565b6102a58161029f84546101f4565b8461022c565b6020601f8211600181146102d7575f83156102c05750848201515b5f19600385901b1c1916600184901b178455610270565b5f84815260208120601f198516915b8281101561030657878501518255602094850194600190920191016102e6565b508482101561032357868401515f19600387901b60f8161c191681555b50505050600190811b01905550565b634e487b7160e01b5f52601160045260245ffd5b808202811582820484141761035d5761035d610332565b92915050565b8082018082111561035d5761035d610332565b60805160a05160c05160e05161010051610120516101405161016051610180516101a0516101c0516101e0516102005161302a6104f85f395f81816117a8015261192b01525f611f3701525f8181611eb90152818161258901526125b801525f610add01525f81816106ca01528181610a80015281816110ab015261118901525f818161056f01528181610ef6015281816111e9015261121101525f818161038001526110d701525f81816106840152818161107101526111b501525f818161071b01528181610cee015281816110000152818161150f015281816116a50152611e9301525f81816104a601528181610e3f01528181610f2b01528181611a2001528181612509015261255c01525f81816107d201528181610e1d015261195601525f81816105b50152818161102b015281816117870152818161190a015261198301525f818161050b01528181610aad01528181610fba01528181611a9401528181611e3501528181611f68015281816124e401526127bd015261302a5ff3fe608060405260043610610233575f3560e01c80638c0a80c211610129578063c828371e116100a8578063ec33d2a01161006d578063ec33d2a01461077d578063f72a3b0214610791578063f88afc76146107a5578063ff03a3ad146107c4578063ffcd599c146107f6575f5ffd5b8063c828371e146106bc578063c87b56dd146106ee578063d5eeaedf1461070d578063e985e9c51461073f578063eb02c3011461075e575f5ffd5b8063a22cb465116100ee578063a22cb46514610619578063b2a2eef314610638578063b88d4fde14610657578063bd5da9ac14610676578063be26ed7f146106a8575f5ffd5b80638c0a80c21461056157806395d89b411461059357806396423663146105a757806397d475d7146105d95780639bd8ad7114610605575f5ffd5b80632b549f7e116101b557806370a082311161017a57806370a08231146104ca5780637264dc7c146104e957806376dc71be146104fd578063868fb5b31461052f578063891f087414610542575f5ffd5b80632b549f7e146104075780632c551f731461042657806342842e0e1461045a5780636352211e146104795780636aa8f09814610498575f5ffd5b806318f56a0a116101fb57806318f56a0a14610311578063217ac2371461033257806323b872dd1461035357806327c5582c146103725780632a0fa321146103a4575f5ffd5b806301ffc9a714610237578063065c3f181461026b57806306fdde0314610298578063081812fc146102b9578063095ea7b3146102f0575b5f5ffd5b348015610242575f5ffd5b50610256610251366004612a74565b610815565b60405190151581526020015b60405180910390f35b348015610276575f5ffd5b5061028a610285366004612a8f565b610866565b604051908152602001610262565b3480156102a3575f5ffd5b506102ac6108ad565b6040516102629190612ad4565b3480156102c4575f5ffd5b506102d86102d3366004612a8f565b61093c565b6040516001600160a01b039091168152602001610262565b3480156102fb575f5ffd5b5061030f61030a366004612b01565b610963565b005b34801561031c575f5ffd5b50610325610972565b6040516102629190612ba2565b34801561033d575f5ffd5b50610346610a7d565b6040516102629190612c35565b34801561035e575f5ffd5b5061030f61036d366004612c48565b610b0f565b34801561037d575f5ffd5b507f000000000000000000000000000000000000000000000000000000000000000061028a565b3480156103af575f5ffd5b506103fa6103be366004612a8f565b604080518082019091525f8082526020820152505f90815260086020908152604091829020825180840190935280548352600101549082015290565b6040516102629190612c82565b348015610412575f5ffd5b506103fa610421366004612a8f565b610b9d565b348015610431575f5ffd5b50610445610440366004612a8f565b610bf7565b60408051928352602083019190915201610262565b348015610465575f5ffd5b5061030f610474366004612c48565b610c7a565b348015610484575f5ffd5b506102d8610493366004612a8f565b610c99565b3480156104a3575f5ffd5b507f000000000000000000000000000000000000000000000000000000000000000061028a565b3480156104d5575f5ffd5b5061028a6104e4366004612c99565b610ca3565b3480156104f4575f5ffd5b5061028a610ce8565b348015610508575f5ffd5b507f000000000000000000000000000000000000000000000000000000000000000061028a565b61028a61053d366004612a8f565b610d17565b34801561054d575f5ffd5b5061028a61055c366004612a8f565b610ebb565b34801561056c575f5ffd5b507f000000000000000000000000000000000000000000000000000000000000000061028a565b34801561059e575f5ffd5b506102ac610f69565b3480156105b2575f5ffd5b507f00000000000000000000000000000000000000000000000000000000000000006102d8565b3480156105e4575f5ffd5b506105f86105f3366004612c99565b610f78565b6040516102629190612cb2565b348015610610575f5ffd5b5060075461028a565b348015610624575f5ffd5b5061030f610633366004612cd1565b611062565b348015610643575f5ffd5b50610346610652366004612a8f565b61106d565b348015610662575f5ffd5b5061030f610671366004612d1a565b611146565b348015610681575f5ffd5b507f000000000000000000000000000000000000000000000000000000000000000061028a565b3480156106b3575f5ffd5b5061028a61115d565b3480156106c7575f5ffd5b507f000000000000000000000000000000000000000000000000000000000000000061028a565b3480156106f9575f5ffd5b506102ac610708366004612a8f565b611237565b348015610718575f5ffd5b507f000000000000000000000000000000000000000000000000000000000000000061028a565b34801561074a575f5ffd5b50610256610759366004612df7565b6112a7565b348015610769575f5ffd5b506105f8610778366004612a8f565b6112d4565b348015610788575f5ffd5b5061030f6113b6565b34801561079c575f5ffd5b5060065461028a565b3480156107b0575f5ffd5b5061030f6107bf366004612e28565b611585565b3480156107cf575f5ffd5b507f00000000000000000000000000000000000000000000000000000000000000006102d8565b348015610801575f5ffd5b5061028a610810366004612a8f565b6116fb565b5f6001600160e01b031982166380ac58cd60e01b148061084557506001600160e01b03198216635b5e139f60e01b145b8061086057506301ffc9a760e01b6001600160e01b03198316145b92915050565b5f5f6006838154811061087b5761087b612e48565b905f5260205f209060050201905061089283610ebb565b91506108a7816108a185610c99565b8461176a565b50919050565b60605f80546108bb90612e5c565b80601f01602080910402602001604051908101604052809291908181526020018280546108e790612e5c565b80156109325780601f1061090957610100808354040283529160200191610932565b820191905f5260205f20905b81548152906001019060200180831161091557829003601f168201915b5050505050905090565b5f610946826117ce565b505f828152600460205260409020546001600160a01b0316610860565b61096e828233611806565b5050565b60606006805480602002602001604051908101604052809291908181526020015f905b82821015610a74578382905f5260205f2090600502016040518060800160405290815f820154815260200160018201805480602002602001604051908101604052809291908181526020018280548015610a2b57602002820191905f5260205f20905f905b825461010083900a900460ff1615158152602060019283018181049485019490930390920291018084116109fa5790505b5050505050815260200160028201548152602001600382016040518060400160405290815f82015481526020016001820154815250508152505081526020019060010190610995565b50505050905090565b5f7f0000000000000000000000000000000000000000000000000000000000000000421015610aab57505f90565b7f00000000000000000000000000000000000000000000000000000000000000006006541015610adb5750600390565b7f0000000000000000000000000000000000000000000000000000000000000000421115610b095750600290565b50600190565b6001600160a01b038216610b3d57604051633250574960e11b81525f60048201526024015b60405180910390fd5b5f610b49838333611813565b9050836001600160a01b0316816001600160a01b031614610b97576040516364283d7b60e01b81526001600160a01b0380861660048301526024820184905282166044820152606401610b34565b50505050565b604080518082019091525f808252602082015260068281548110610bc357610bc3612e48565b905f5260205f2090600502016003016040518060400160405290815f82015481526020016001820154815250509050919050565b5f5f5f610c0384610b9d565b8051909150158015610c1757506020810151155b15610c2757505f93849350915050565b5f60068581548110610c3b57610c3b612e48565b5f91825260208220600360059092020190810182905560048101919091559050610c73610c6786610c99565b83516020850151611905565b5050915091565b610c9483838360405180602001604052805f815250611146565b505050565b5f610860826117ce565b5f6001600160a01b038216610ccd576040516322718ad960e21b81525f6004820152602401610b34565b506001600160a01b03165f9081526003602052604090205490565b5f610d127f000000000000000000000000000000000000000000000000000000000000000061197c565b905090565b5f6001610d22610a7d565b6003811115610d3357610d33612c05565b14610d5157604051630fe101db60e31b815260040160405180910390fd5b5f610d5a61115d565b90505f60068481548110610d7057610d70612e48565b5f918252602090912060059091020190506001610d8c8361106d565b6003811115610d9d57610d9d612c05565b148290610dc057604051632fb602db60e01b8152600401610b3491815260200190565b50806001018281548110610dd657610dd6612e48565b905f5260205f2090602091828204019190069054906101000a900460ff16158290610e17576040516302a9245160e41b8152600401610b3491815260200190565b50610e637f0000000000000000000000000000000000000000000000000000000000000000337f00000000000000000000000000000000000000000000000000000000000000006119b3565b6001816001018381548110610e7a57610e7a612e48565b905f5260205f2090602091828204019190066101000a81548160ff021916908315150217905550610eb381610eae86610c99565b611a1a565b949350505050565b5f5f60068381548110610ed057610ed0612e48565b905f5260205f2090600502015f01549050805f03610ef057505f92915050565b5f6007547f0000000000000000000000000000000000000000000000000000000000000000610f1f9190612ea2565b90505f610f54610f4f837f0000000000000000000000000000000000000000000000000000000000000000612eb5565b61197c565b9050610f608184612ea2565b95945050505050565b6060600180546108bb90612e5c565b610f80612976565b5f610f89610a7d565b6003811115610f9a57610f9a612c05565b14610fb85760405163d5a8809160e01b815260040160405180910390fd5b7f000000000000000000000000000000000000000000000000000000000000000060065410610ffa57604051634a9ce38960e11b815260040160405180910390fd5b5f6110247f000000000000000000000000000000000000000000000000000000000000000061197c565b90506110517f000000000000000000000000000000000000000000000000000000000000000033836119b3565b61105b8382611a51565b9392505050565b61096e338383611bdc565b5f807f000000000000000000000000000000000000000000000000000000000000000061109b600185612ea2565b6110a59190612eb5565b6110cf907f0000000000000000000000000000000000000000000000000000000000000000612ecc565b90505f6110fc7f000000000000000000000000000000000000000000000000000000000000000083612ecc565b90505f429050846007541061111657506003949350505050565b8281101561112857505f949350505050565b8181101561113b57506001949350505050565b506002949350505050565b611151848484610b0f565b610b9784848484611c7a565b5f6001611168610a7d565b600381111561117957611179612c05565b1461118357505f90565b5f6111ae7f000000000000000000000000000000000000000000000000000000000000000042612ea2565b90506111da7f000000000000000000000000000000000000000000000000000000000000000082612ef3565b6111e5906001612ecc565b91507f0000000000000000000000000000000000000000000000000000000000000000821115611233577f000000000000000000000000000000000000000000000000000000000000000091505b5090565b6060611242826117ce565b505f61125860408051602081019091525f815290565b90505f8151116112765760405180602001604052805f81525061105b565b8061128084611da0565b604051602001611291929190612f29565b6040516020818303038152906040529392505050565b6001600160a01b039182165f90815260056020908152604080832093909416825291909152205460ff1690565b6112dc612976565b600682815481106112ef576112ef612e48565b905f5260205f2090600502016040518060800160405290815f82015481526020016001820180548060200260200160405190810160405280929190818152602001828054801561137b57602002820191905f5260205f20905f905b825461010083900a900460ff16151581526020600192830181810494850194909303909202910180841161134a5790505b505050918352505060028201546020808301919091526040805180820182526003850154815260049094015491840191909152015292915050565b5f6113bf610a7d565b905060018160038111156113d5576113d5612c05565b14806113f2575060028160038111156113f0576113f0612c05565b145b61140f5760405163778d2c3760e11b815260040160405180910390fd5b5f61141861115d565b6007549091505f6114298284612ea2565b905060016114368461106d565b600381111561144757611447612c05565b0361145a578061145681612f3d565b9150505b5f811161147a576040516339b309dd60e11b815260040160405180910390fd5b5f6114858284612ecc565b90506114a260405180604001604052805f81526020015f81525090565b5f80806114b0876001612ecc565b90505b84811161157a576040805180820182525f80825260209182018190528381526008825282902082518084019093528054835260010154908201819052909450915081156115035783519250611531565b61150b611e30565b92507f000000000000000000000000000000000000000000000000000000000000000091505b61153c838383611e91565b806006848154811061155057611550612e48565b5f91825260209091206002600590920201015560078190558061157281612f52565b9150506114b3565b505050505050505050565b600161158f610a7d565b60038111156115a0576115a0612c05565b146115be57604051630fe101db60e31b815260040160405180910390fd5b5f6115c761115d565b905060016115d48261106d565b60038111156115e5576115e5612c05565b14819061160857604051632fb602db60e01b8152600401610b3491815260200190565b506006838154811061161c5761161c612e48565b905f5260205f209060050201600201545f1461164b57604051636bafb4c960e01b815260040160405180910390fd5b61165483610c99565b6001600160a01b0316336001600160a01b03161461168557604051634eddae0760e01b815260040160405180910390fd5b5f818152600860205260408120600181015490918190036116ce576116cb7f00000000000000000000000000000000000000000000000000000000000000006001612ecc565b90505b8084106116ee57604051631b9903dd60e01b815260040160405180910390fd5b5092835550600190910155565b5f6003611706610a7d565b600381111561171757611717612c05565b1461173557604051636d83b9a360e11b815260040160405180910390fd5b5f6006838154811061174957611749612e48565b905f5260205f2090600502019050805f015491506108a7816108a185610c99565b80835f015f82825461177c9190612ea2565b90915550610c9490507f00000000000000000000000000000000000000000000000000000000000000007f00000000000000000000000000000000000000000000000000000000000000008484611f9d565b5f818152600260205260408120546001600160a01b03168061086057604051637e27328960e01b815260048101849052602401610b34565b610c948383836001612028565b5f828152600260205260408120546001600160a01b039081169083161561183f5761183f81848661212c565b6001600160a01b038116156118795761185a5f855f5f612028565b6001600160a01b0381165f90815260036020526040902080545f190190555b6001600160a01b038516156118a7576001600160a01b0385165f908152600360205260409020805460010190555b5f8481526002602052604080822080546001600160a01b0319166001600160a01b0389811691821790925591518793918516917fddf252ad1be2c89b69c2b068fc378daa952ba7f163c4a11628f55a4df523b3ef91a4949350505050565b6119517f00000000000000000000000000000000000000000000000000000000000000007f00000000000000000000000000000000000000000000000000000000000000008584611f9d565b610c947f00000000000000000000000000000000000000000000000000000000000000008484612190565b5f5f6119a77f000000000000000000000000000000000000000000000000000000000000000061224f565b905061105b83826122b0565b6001600160a01b0383166119ff57803414610c945760405162461bcd60e51b815260206004820152600c60248201526b0cae8d040dad2e6dac2e8c6d60a31b6044820152606401610b34565b8015610c9457610c946001600160a01b0384168330846122de565b5f611a447f000000000000000000000000000000000000000000000000000000000000000061197c565b905061086083838361176a565b611a59612976565b60068054600181018083555f83815291929083908110611a7b57611a7b612e48565b5f91825260209091206005909102018481559050611aba7f00000000000000000000000000000000000000000000000000000000000000006001612ecc565b67ffffffffffffffff811115611ad257611ad2612d06565b604051908082528060200260200182016040528015611afb578160200160208202803683370190505b508051611b129160018401916020909101906129b4565b50611b1d8583612345565b806040518060800160405290815f820154815260200160018201805480602002602001604051908101604052809291908181526020018280548015611b9e57602002820191905f5260205f20905f905b825461010083900a900460ff161515815260206001928301818104948501949093039092029101808411611b6d5790505b505050918352505060028201546020808301919091526040805180820182526003850154815260049094015491840191909152015295945050505050565b6001600160a01b038216611c0e57604051630b61174360e31b81526001600160a01b0383166004820152602401610b34565b6001600160a01b038381165f81815260056020908152604080832094871680845294825291829020805460ff191686151590811790915591519182527f17307eab39ab6107e8899845ad3d59bd9653f200f220920489ca2b5937696c31910160405180910390a3505050565b6001600160a01b0383163b15610b9757604051630a85bd0160e11b81526001600160a01b0384169063150b7a0290611cbc903390889087908790600401612f6a565b6020604051808303815f875af1925050508015611cf6575060408051601f3d908101601f19168201909252611cf391810190612f9c565b60015b611d5d573d808015611d23576040519150601f19603f3d011682016040523d82523d5f602084013e611d28565b606091505b5080515f03611d5557604051633250574960e11b81526001600160a01b0385166004820152602401610b34565b805181602001fd5b6001600160e01b03198116630a85bd0160e11b14611d9957604051633250574960e11b81526001600160a01b0385166004820152602401610b34565b5050505050565b60605f611dac836123a6565b60010190505f8167ffffffffffffffff811115611dcb57611dcb612d06565b6040519080825280601f01601f191660200182016040528015611df5576020820181803683370190505b5090508181016020015b5f19016f181899199a1a9b1b9c1cb0b131b232b360811b600a86061a8153600a8504945084611dff57509392505050565b5f5f5b7f00000000000000000000000000000000000000000000000000000000000000008110156112335760068181548110611e6e57611e6e612e48565b905f5260205f209060050201600201545f03611e8957919050565b600101611e33565b7f00000000000000000000000000000000000000000000000000000000000000005f611edd827f000000000000000000000000000000000000000000000000000000000000000061247d565b90505f611f05611ef7611ef08486612ea2565b87906122b0565b670de0b6b3a764000061249a565b90505f611f1285836124af565b90505f611f1e88610c99565b9050611f3281835f01518460200151611905565b611f657f000000000000000000000000000000000000000000000000000000000000000083608001518460a00151611905565b5f7f0000000000000000000000000000000000000000000000000000000000000000905061157a89828560600151866040015161266a565b8015610b975760405163769f8e5d60e01b81526001600160a01b0383811660048301526024820183905284811660448301525f60648301819052608483015285169063769f8e5d9060a4016020604051808303815f875af1158015612004573d5f5f3e3d5ffd5b505050506040513d601f19601f82011682018060405250810190611d999190612fb7565b808061203c57506001600160a01b03821615155b156120fd575f61204b846117ce565b90506001600160a01b038316158015906120775750826001600160a01b0316816001600160a01b031614155b801561208a575061208881846112a7565b155b156120b35760405163a9fbf51f60e01b81526001600160a01b0384166004820152602401610b34565b81156120fb5783856001600160a01b0316826001600160a01b03167f8c5be1e5ebec7d5bd14f71427d1e84f3dd0314c0f7b2291e5b200ac8c7c3b92560405160405180910390a45b505b50505f90815260046020526040902080546001600160a01b0319166001600160a01b0392909216919091179055565b6121378383836126c5565b610c94576001600160a01b03831661216557604051637e27328960e01b815260048101829052602401610b34565b60405163177e802f60e01b81526001600160a01b038316600482015260248101829052604401610b34565b805f0361219c57505050565b6001600160a01b03831661223b575f826001600160a01b0316826040515f6040518083038185875af1925050503d805f81146121f3576040519150601f19603f3d011682016040523d82523d5f602084013e6121f8565b606091505b5050905080610b975760405162461bcd60e51b815260206004820152600f60248201526e195d1a081cd95b990819985a5b1959608a1b6044820152606401610b34565b610c946001600160a01b0384168383612726565b5f816001600160a01b0316633ba0b9a96040518163ffffffff1660e01b8152600401602060405180830381865afa15801561228c573d5f5f3e3d5ffd5b505050506040513d601f19601f820116820180604052508101906108609190612fb7565b5f806122c4670de0b6b3a764000085612eb5565b90508281816122d5576122d5612edf565b04949350505050565b6040516001600160a01b038481166024830152838116604483015260648201839052610b979186918216906323b872dd906084015b604051602081830303815290604052915060e01b6020820180516001600160e01b038381831617835250505050612757565b6001600160a01b03821661236e57604051633250574960e11b81525f6004820152602401610b34565b5f61237a83835f611813565b90506001600160a01b03811615610c94576040516339e3563760e11b81525f6004820152602401610b34565b5f8072184f03e93ff9f4daa797ed6e38ed64bf6a1f0160401b83106123e45772184f03e93ff9f4daa797ed6e38ed64bf6a1f0160401b830492506040015b6d04ee2d6d415b85acef81000000008310612410576d04ee2d6d415b85acef8100000000830492506020015b662386f26fc10000831061242e57662386f26fc10000830492506010015b6305f5e1008310612446576305f5e100830492506008015b612710831061245a57612710830492506004015b6064831061246c576064830492506002015b600a83106108605760010192915050565b5f806124898385612eb5565b9050670de0b6b3a7640000816122d5565b5f8183106124a8578161105b565b5090919050565b6124e26040518060c001604052805f81526020015f81526020015f81526020015f81526020015f81526020015f81525090565b7f00000000000000000000000000000000000000000000000000000000000000005f61252d7f000000000000000000000000000000000000000000000000000000000000000061197c565b90505f61253a86836127b8565b90505f6125478285612ea2565b90505f6125548484612eb5565b90505f6125817f000000000000000000000000000000000000000000000000000000000000000084612eb5565b90506125ad827f000000000000000000000000000000000000000000000000000000000000000061247d565b60a08801526125dc817f000000000000000000000000000000000000000000000000000000000000000061247d565b60808801526125eb828961247d565b60208801526125fa818961247d565b8752670de0b6b3a764000088101561265e575f612618600188612ea2565b90505f61262d8a670de0b6b3a7640000612ea2565b90505f61263a8383612ef3565b9050612646858261247d565b60608b0152612655848261247d565b60408b01525050505b50505050505092915050565b81158015612676575080155b610b97575f5b83811015611d99578085146126bd575f6006828154811061269f5761269f612e48565b5f918252602090912060059091020160048101859055600301839055505b60010161267c565b5f6001600160a01b03831615801590610eb35750826001600160a01b0316846001600160a01b031614806126fe57506126fe84846112a7565b80610eb35750505f908152600460205260409020546001600160a01b03908116911614919050565b6040516001600160a01b03838116602483015260448201839052610c9491859182169063a9059cbb90606401612313565b5f61276b6001600160a01b03841683612871565b905080515f1415801561278f57508080602001905181019061278d9190612fce565b155b15610c9457604051635274afe760e01b81526001600160a01b0384166004820152602401610b34565b5f805b7f000000000000000000000000000000000000000000000000000000000000000081101561286a575f600682815481106127f7576127f7612e48565b905f5260205f209060050201905080600101858154811061281a5761281a612e48565b905f5260205f2090602091828204019190069054906101000a900460ff16612861578261284681612f52565b93505083815f015f82825461285b9190612ea2565b90915550505b506001016127bb565b5092915050565b606061105b83835f845f5f856001600160a01b031684866040516128959190612fe9565b5f6040518083038185875af1925050503d805f81146128cf576040519150601f19603f3d011682016040523d82523d5f602084013e6128d4565b606091505b50915091506128e48683836128ee565b9695505050505050565b606082612903576128fe8261294a565b61105b565b815115801561291a57506001600160a01b0384163b155b1561294357604051639996b31560e01b81526001600160a01b0385166004820152602401610b34565b508061105b565b80511561295a5780518082602001fd5b604051630a12f52160e11b815260040160405180910390fd5b50565b60405180608001604052805f8152602001606081526020015f81526020016129af60405180604001604052805f81526020015f81525090565b905290565b828054828255905f5260205f2090601f01602090048101928215612a44579160200282015f5b83821115612a1657835183826101000a81548160ff02191690831515021790555092602001926001016020815f010492830192600103026129da565b8015612a425782816101000a81549060ff02191690556001016020815f01049283019260010302612a16565b505b506112339291505b80821115611233575f8155600101612a4c565b6001600160e01b031981168114612973575f5ffd5b5f60208284031215612a84575f5ffd5b813561105b81612a5f565b5f60208284031215612a9f575f5ffd5b5035919050565b5f81518084528060208401602086015e5f602082860101526020601f19601f83011685010191505092915050565b602081525f61105b6020830184612aa6565b80356001600160a01b0381168114612afc575f5ffd5b919050565b5f5f60408385031215612b12575f5ffd5b612b1b83612ae6565b946020939093013593505050565b5f60a0830182518452602083015160a0602086015281815180845260c0870191506020830193505f92505b80831015612b7957835115158252602082019150602084019350600183019250612b54565b506040850151604087015260608501519250610f60606087018480518252602090810151910152565b5f602082016020835280845180835260408501915060408160051b8601019250602086015f5b82811015612bf957603f19878603018452612be4858351612b29565b94506020938401939190910190600101612bc8565b50929695505050505050565b634e487b7160e01b5f52602160045260245ffd5b6004811061297357634e487b7160e01b5f52602160045260245ffd5b60208101612c4283612c19565b91905290565b5f5f5f60608486031215612c5a575f5ffd5b612c6384612ae6565b9250612c7160208501612ae6565b929592945050506040919091013590565b815181526020808301519082015260408101610860565b5f60208284031215612ca9575f5ffd5b61105b82612ae6565b602081525f61105b6020830184612b29565b8015158114612973575f5ffd5b5f5f60408385031215612ce2575f5ffd5b612ceb83612ae6565b91506020830135612cfb81612cc4565b809150509250929050565b634e487b7160e01b5f52604160045260245ffd5b5f5f5f5f60808587031215612d2d575f5ffd5b612d3685612ae6565b9350612d4460208601612ae6565b925060408501359150606085013567ffffffffffffffff811115612d66575f5ffd5b8501601f81018713612d76575f5ffd5b803567ffffffffffffffff811115612d9057612d90612d06565b604051601f8201601f19908116603f0116810167ffffffffffffffff81118282101715612dbf57612dbf612d06565b604052818152828201602001891015612dd6575f5ffd5b816020840160208301375f6020838301015280935050505092959194509250565b5f5f60408385031215612e08575f5ffd5b612e1183612ae6565b9150612e1f60208401612ae6565b90509250929050565b5f5f60408385031215612e39575f5ffd5b50508035926020909101359150565b634e487b7160e01b5f52603260045260245ffd5b600181811c90821680612e7057607f821691505b6020821081036108a757634e487b7160e01b5f52602260045260245ffd5b634e487b7160e01b5f52601160045260245ffd5b8181038181111561086057610860612e8e565b808202811582820484141761086057610860612e8e565b8082018082111561086057610860612e8e565b634e487b7160e01b5f52601260045260245ffd5b5f82612f0d57634e487b7160e01b5f52601260045260245ffd5b500490565b5f81518060208401855e5f93019283525090919050565b5f610eb3612f378386612f12565b84612f12565b5f81612f4b57612f4b612e8e565b505f190190565b5f60018201612f6357612f63612e8e565b5060010190565b6001600160a01b03858116825284166020820152604081018390526080606082018190525f906128e490830184612aa6565b5f60208284031215612fac575f5ffd5b815161105b81612a5f565b5f60208284031215612fc7575f5ffd5b5051919050565b5f60208284031215612fde575f5ffd5b815161105b81612cc4565b5f61105b8284612f1256fea2646970667358221220151d878b949e3ff33392e4e28962e2f19cf3ba73fb869f22c53c8b909d6384da64736f6c634300081b0033a2646970667358221220f682d93d8e2a4113dd45886c557a5f91057a13fc357d2da3802f7a80fb98002764736f6c634300081b0033","linkReferences":{}},"methodIdentifiers":{"MAX_RESERVE_FEE_PERCENT()":"64752910","MIN_TOTAL_CYCLES()":"f704d19b","addSupportedSYTokens(address[])":"fe4d911d","createSpiralPool(address,uint256,uint256,uint256,uint256,uint256)":"9db09764","getReserveFeePercent()":"a60df5e8","getSpiralPoolsForSYToken(address)":"abae098e","getSupportedSYTokens()":"4da16d2f","getTreasury()":"3b19e84a","getUnderlyingTokens(address)":"656dc2e4","isSupportedSYToken(address)":"561dba4f","owner()":"8da5cb5b","renounceOwnership()":"715018a6","transferOwnership(address)":"f2fde38b","updateReserveFeePercent(uint256)":"8c7193b7","updateTreasury(address)":"7f51bb1f"},"id":60}